{
  "contractName": "ElectionContract",
  "abi": [
    {
      "inputs": [],
      "stateMutability": "nonpayable",
      "type": "constructor"
    },
    {
      "inputs": [
        {
          "internalType": "uint256",
          "name": "",
          "type": "uint256"
        }
      ],
      "name": "candidateDetails",
      "outputs": [
        {
          "internalType": "string",
          "name": "name",
          "type": "string"
        },
        {
          "internalType": "string",
          "name": "party",
          "type": "string"
        },
        {
          "internalType": "string",
          "name": "gender",
          "type": "string"
        },
        {
          "internalType": "uint256",
          "name": "age",
          "type": "uint256"
        },
        {
          "internalType": "uint256",
          "name": "uniqueId",
          "type": "uint256"
        },
        {
          "internalType": "string",
          "name": "imghash",
          "type": "string"
        },
        {
          "internalType": "uint256",
          "name": "voteCount",
          "type": "uint256"
        },
        {
          "internalType": "uint256",
          "name": "candidateId",
          "type": "uint256"
        }
      ],
      "stateMutability": "view",
      "type": "function",
      "constant": true
    },
    {
      "inputs": [],
      "name": "owner",
      "outputs": [
        {
          "internalType": "address",
          "name": "",
          "type": "address"
        }
      ],
      "stateMutability": "view",
      "type": "function",
      "constant": true
    },
    {
      "inputs": [
        {
          "internalType": "address",
          "name": "",
          "type": "address"
        }
      ],
      "name": "voterDetails",
      "outputs": [
        {
          "internalType": "address",
          "name": "voterAdd",
          "type": "address"
        },
        {
          "internalType": "string",
          "name": "name",
          "type": "string"
        },
        {
          "internalType": "string",
          "name": "voterId",
          "type": "string"
        },
        {
          "internalType": "bool",
          "name": "hasVoted",
          "type": "bool"
        },
        {
          "internalType": "bool",
          "name": "isVerified",
          "type": "bool"
        }
      ],
      "stateMutability": "view",
      "type": "function",
      "constant": true
    },
    {
      "inputs": [
        {
          "internalType": "uint256",
          "name": "",
          "type": "uint256"
        }
      ],
      "name": "voters",
      "outputs": [
        {
          "internalType": "address",
          "name": "",
          "type": "address"
        }
      ],
      "stateMutability": "view",
      "type": "function",
      "constant": true
    },
    {
      "inputs": [],
      "name": "getOwner",
      "outputs": [
        {
          "internalType": "address",
          "name": "",
          "type": "address"
        }
      ],
      "stateMutability": "view",
      "type": "function",
      "constant": true
    },
    {
      "inputs": [
        {
          "internalType": "string",
          "name": "_name",
          "type": "string"
        },
        {
          "internalType": "string",
          "name": "_party",
          "type": "string"
        },
        {
          "internalType": "string",
          "name": "_gender",
          "type": "string"
        },
        {
          "internalType": "uint256",
          "name": "_age",
          "type": "uint256"
        },
        {
          "internalType": "uint256",
          "name": "_uniqueId",
          "type": "uint256"
        },
        {
          "internalType": "string",
          "name": "_imghash",
          "type": "string"
        }
      ],
      "name": "addCandidate",
      "outputs": [],
      "stateMutability": "nonpayable",
      "type": "function"
    },
    {
      "inputs": [],
      "name": "getTotalCandidates",
      "outputs": [
        {
          "internalType": "uint256",
          "name": "",
          "type": "uint256"
        }
      ],
      "stateMutability": "view",
      "type": "function",
      "constant": true
    },
    {
      "inputs": [
        {
          "internalType": "string",
          "name": "_name",
          "type": "string"
        },
        {
          "internalType": "string",
          "name": "_voterid",
          "type": "string"
        }
      ],
      "name": "registerVoter",
      "outputs": [],
      "stateMutability": "nonpayable",
      "type": "function"
    },
    {
      "inputs": [],
      "name": "getVoterCount",
      "outputs": [
        {
          "internalType": "uint256",
          "name": "",
          "type": "uint256"
        }
      ],
      "stateMutability": "view",
      "type": "function",
      "constant": true
    },
    {
      "inputs": [
        {
          "internalType": "address",
          "name": "_address",
          "type": "address"
        }
      ],
      "name": "verifyVoter",
      "outputs": [],
      "stateMutability": "nonpayable",
      "type": "function"
    },
    {
      "inputs": [
        {
          "internalType": "uint256",
          "name": "candidateId",
          "type": "uint256"
        }
      ],
      "name": "castVote",
      "outputs": [],
      "stateMutability": "nonpayable",
      "type": "function"
    },
    {
      "inputs": [],
      "name": "startElection",
      "outputs": [],
      "stateMutability": "nonpayable",
      "type": "function"
    },
    {
      "inputs": [],
      "name": "endElection",
      "outputs": [],
      "stateMutability": "nonpayable",
      "type": "function"
    },
    {
      "inputs": [],
      "name": "getStart",
      "outputs": [
        {
          "internalType": "bool",
          "name": "",
          "type": "bool"
        }
      ],
      "stateMutability": "view",
      "type": "function",
      "constant": true
    },
    {
      "inputs": [],
      "name": "getEnd",
      "outputs": [
        {
          "internalType": "bool",
          "name": "",
          "type": "bool"
        }
      ],
      "stateMutability": "view",
      "type": "function",
      "constant": true
    }
  ],
  "bytecode": "0x608060405234801561001057600080fd5b50336000806101000a81548173ffffffffffffffffffffffffffffffffffffffff021916908373ffffffffffffffffffffffffffffffffffffffff160217905550600060018190555060006002819055506000600360006101000a81548160ff0219169083151502179055506000600360016101000a81548160ff0219169083151502179055506115f8806100a66000396000f3fe608060405234801561001057600080fd5b50600436106100f55760003560e01c80636247e532116100975780638da5cb5b116100665780638da5cb5b146102435780639f05a36d14610261578063c5292c671461027f578063da58c7d91461029d576100f5565b80636247e532146101c857806362d73eb8146101ff578063893d20e8146102095780638a4c884714610227576100f5565b806314f80f8e116100d357806314f80f8e146101525780633eb76b9c1461016e5780635938750d1461018a57806359f78468146101be576100f5565b806309bd0950146100fa5780630deb56ab1461011657806311174a2914610134575b600080fd5b610114600480360381019061010f9190610f51565b6102cd565b005b61011e610383565b60405161012b9190610f97565b60405180910390f35b61013c61038d565b6040516101499190610f97565b60405180910390f35b61016c60048036038101906101679190611124565b610397565b005b61018860048036038101906101839190611221565b610514565b005b6101a4600480360381019061019f9190610f51565b6106ad565b6040516101b5959493929190611300565b60405180910390f35b6101c661082d565b005b6101e260048036038101906101dd9190611221565b6108bd565b6040516101f6989796959493929190611361565b60405180910390f35b610207610b25565b005b610211610bb5565b60405161021e91906113fb565b60405180910390f35b610241600480360381019061023c9190611416565b610bde565b005b61024b610dab565b60405161025891906113fb565b60405180910390f35b610269610dcf565b604051610276919061148e565b60405180910390f35b610287610de6565b604051610294919061148e565b60405180910390f35b6102b760048036038101906102b29190611221565b610dfd565b6040516102c491906113fb565b60405180910390f35b60008054906101000a900473ffffffffffffffffffffffffffffffffffffffff1673ffffffffffffffffffffffffffffffffffffffff163373ffffffffffffffffffffffffffffffffffffffff161461032557600080fd5b6001600660008373ffffffffffffffffffffffffffffffffffffffff1673ffffffffffffffffffffffffffffffffffffffff16815260200190815260200160002060030160016101000a81548160ff02191690831515021790555050565b6000600154905090565b6000600254905090565b60008054906101000a900473ffffffffffffffffffffffffffffffffffffffff1673ffffffffffffffffffffffffffffffffffffffff163373ffffffffffffffffffffffffffffffffffffffff16146103ef57600080fd5b6000604051806101000160405280888152602001878152602001868152602001858152602001848152602001838152602001600081526020016103e960015461043891906114d8565b815250905080600460006001548152602001908152602001600020600082015181600001908051906020019061046f929190610e3c565b50602082015181600101908051906020019061048c929190610e3c565b5060408201518160020190805190602001906104a9929190610e3c565b50606082015181600301556080820151816004015560a08201518160050190805190602001906104da929190610e3c565b5060c0820151816006015560e08201518160070155905050600180600082825461050491906114d8565b9250508190555050505050505050565b60001515600660003373ffffffffffffffffffffffffffffffffffffffff1673ffffffffffffffffffffffffffffffffffffffff16815260200190815260200160002060030160009054906101000a900460ff1615151461057457600080fd5b60011515600660003373ffffffffffffffffffffffffffffffffffffffff1673ffffffffffffffffffffffffffffffffffffffff16815260200190815260200160002060030160019054906101000a900460ff161515146105d457600080fd5b60011515600360009054906101000a900460ff161515146105f457600080fd5b60001515600360019054906101000a900460ff1615151461061457600080fd5b6001600460006103e984610628919061152e565b8152602001908152602001600020600601600082825461064891906114d8565b925050819055506001600660003373ffffffffffffffffffffffffffffffffffffffff1673ffffffffffffffffffffffffffffffffffffffff16815260200190815260200160002060030160006101000a81548160ff02191690831515021790555050565b60066020528060005260406000206000915090508060000160009054906101000a900473ffffffffffffffffffffffffffffffffffffffff16908060010180546106f690611591565b80601f016020809104026020016040519081016040528092919081815260200182805461072290611591565b801561076f5780601f106107445761010080835404028352916020019161076f565b820191906000526020600020905b81548152906001019060200180831161075257829003601f168201915b50505050509080600201805461078490611591565b80601f01602080910402602001604051908101604052809291908181526020018280546107b090611591565b80156107fd5780601f106107d2576101008083540402835291602001916107fd565b820191906000526020600020905b8154815290600101906020018083116107e057829003601f168201915b5050505050908060030160009054906101000a900460ff16908060030160019054906101000a900460ff16905085565b60008054906101000a900473ffffffffffffffffffffffffffffffffffffffff1673ffffffffffffffffffffffffffffffffffffffff163373ffffffffffffffffffffffffffffffffffffffff161461088557600080fd5b6000600360006101000a81548160ff0219169083151502179055506001600360016101000a81548160ff021916908315150217905550565b60046020528060005260406000206000915090508060000180546108e090611591565b80601f016020809104026020016040519081016040528092919081815260200182805461090c90611591565b80156109595780601f1061092e57610100808354040283529160200191610959565b820191906000526020600020905b81548152906001019060200180831161093c57829003601f168201915b50505050509080600101805461096e90611591565b80601f016020809104026020016040519081016040528092919081815260200182805461099a90611591565b80156109e75780601f106109bc576101008083540402835291602001916109e7565b820191906000526020600020905b8154815290600101906020018083116109ca57829003601f168201915b5050505050908060020180546109fc90611591565b80601f0160208091040260200160405190810160405280929190818152602001828054610a2890611591565b8015610a755780601f10610a4a57610100808354040283529160200191610a75565b820191906000526020600020905b815481529060010190602001808311610a5857829003601f168201915b505050505090806003015490806004015490806005018054610a9690611591565b80601f0160208091040260200160405190810160405280929190818152602001828054610ac290611591565b8015610b0f5780601f10610ae457610100808354040283529160200191610b0f565b820191906000526020600020905b815481529060010190602001808311610af257829003601f168201915b5050505050908060060154908060070154905088565b60008054906101000a900473ffffffffffffffffffffffffffffffffffffffff1673ffffffffffffffffffffffffffffffffffffffff163373ffffffffffffffffffffffffffffffffffffffff1614610b7d57600080fd5b6001600360006101000a81548160ff0219169083151502179055506000600360016101000a81548160ff021916908315150217905550565b60008060009054906101000a900473ffffffffffffffffffffffffffffffffffffffff16905090565b60006040518060a001604052803373ffffffffffffffffffffffffffffffffffffffff16815260200184815260200183815260200160001515815260200160001515815250905080600660003373ffffffffffffffffffffffffffffffffffffffff1673ffffffffffffffffffffffffffffffffffffffff16815260200190815260200160002060008201518160000160006101000a81548173ffffffffffffffffffffffffffffffffffffffff021916908373ffffffffffffffffffffffffffffffffffffffff1602179055506020820151816001019080519060200190610cc8929190610e3c565b506040820151816002019080519060200190610ce5929190610e3c565b5060608201518160030160006101000a81548160ff02191690831515021790555060808201518160030160016101000a81548160ff0219169083151502179055509050506005339080600181540180825580915050600190039060005260206000200160009091909190916101000a81548173ffffffffffffffffffffffffffffffffffffffff021916908373ffffffffffffffffffffffffffffffffffffffff160217905550600160026000828254610d9f91906114d8565b92505081905550505050565b60008054906101000a900473ffffffffffffffffffffffffffffffffffffffff1681565b6000600360019054906101000a900460ff16905090565b6000600360009054906101000a900460ff16905090565b60058181548110610e0d57600080fd5b906000526020600020016000915054906101000a900473ffffffffffffffffffffffffffffffffffffffff1681565b828054610e4890611591565b90600052602060002090601f016020900481019282610e6a5760008555610eb1565b82601f10610e8357805160ff1916838001178555610eb1565b82800160010185558215610eb1579182015b82811115610eb0578251825591602001919060010190610e95565b5b509050610ebe9190610ec2565b5090565b5b80821115610edb576000816000905550600101610ec3565b5090565b6000604051905090565b600080fd5b600080fd5b600073ffffffffffffffffffffffffffffffffffffffff82169050919050565b6000610f1e82610ef3565b9050919050565b610f2e81610f13565b8114610f3957600080fd5b50565b600081359050610f4b81610f25565b92915050565b600060208284031215610f6757610f66610ee9565b5b6000610f7584828501610f3c565b91505092915050565b6000819050919050565b610f9181610f7e565b82525050565b6000602082019050610fac6000830184610f88565b92915050565b600080fd5b600080fd5b6000601f19601f8301169050919050565b7f4e487b7100000000000000000000000000000000000000000000000000000000600052604160045260246000fd5b61100582610fbc565b810181811067ffffffffffffffff8211171561102457611023610fcd565b5b80604052505050565b6000611037610edf565b90506110438282610ffc565b919050565b600067ffffffffffffffff82111561106357611062610fcd565b5b61106c82610fbc565b9050602081019050919050565b82818337600083830152505050565b600061109b61109684611048565b61102d565b9050828152602081018484840111156110b7576110b6610fb7565b5b6110c2848285611079565b509392505050565b600082601f8301126110df576110de610fb2565b5b81356110ef848260208601611088565b91505092915050565b61110181610f7e565b811461110c57600080fd5b50565b60008135905061111e816110f8565b92915050565b60008060008060008060c0878903121561114157611140610ee9565b5b600087013567ffffffffffffffff81111561115f5761115e610eee565b5b61116b89828a016110ca565b965050602087013567ffffffffffffffff81111561118c5761118b610eee565b5b61119889828a016110ca565b955050604087013567ffffffffffffffff8111156111b9576111b8610eee565b5b6111c589828a016110ca565b94505060606111d689828a0161110f565b93505060806111e789828a0161110f565b92505060a087013567ffffffffffffffff81111561120857611207610eee565b5b61121489828a016110ca565b9150509295509295509295565b60006020828403121561123757611236610ee9565b5b60006112458482850161110f565b91505092915050565b61125781610f13565b82525050565b600081519050919050565b600082825260208201905092915050565b60005b8381101561129757808201518184015260208101905061127c565b838111156112a6576000848401525b50505050565b60006112b78261125d565b6112c18185611268565b93506112d1818560208601611279565b6112da81610fbc565b840191505092915050565b60008115159050919050565b6112fa816112e5565b82525050565b600060a082019050611315600083018861124e565b818103602083015261132781876112ac565b9050818103604083015261133b81866112ac565b905061134a60608301856112f1565b61135760808301846112f1565b9695505050505050565b600061010082019050818103600083015261137c818b6112ac565b90508181036020830152611390818a6112ac565b905081810360408301526113a481896112ac565b90506113b36060830188610f88565b6113c06080830187610f88565b81810360a08301526113d281866112ac565b90506113e160c0830185610f88565b6113ee60e0830184610f88565b9998505050505050505050565b6000602082019050611410600083018461124e565b92915050565b6000806040838503121561142d5761142c610ee9565b5b600083013567ffffffffffffffff81111561144b5761144a610eee565b5b611457858286016110ca565b925050602083013567ffffffffffffffff81111561147857611477610eee565b5b611484858286016110ca565b9150509250929050565b60006020820190506114a360008301846112f1565b92915050565b7f4e487b7100000000000000000000000000000000000000000000000000000000600052601160045260246000fd5b60006114e382610f7e565b91506114ee83610f7e565b9250827fffffffffffffffffffffffffffffffffffffffffffffffffffffffffffffffff03821115611523576115226114a9565b5b828201905092915050565b600061153982610f7e565b915061154483610f7e565b925082821015611557576115566114a9565b5b828203905092915050565b7f4e487b7100000000000000000000000000000000000000000000000000000000600052602260045260246000fd5b600060028204905060018216806115a957607f821691505b6020821081036115bc576115bb611562565b5b5091905056fea2646970667358221220cddd85f499493f1756b10ab376c771f1b6ed4a7322a33ade1d1560dcbcb504cb64736f6c634300080d0033",
  "immutableReferences": {},
  "source": "// SPDX-License-Identifier: GPL-3.0\r\npragma solidity >=0.4.16 <0.9.0;\r\n\r\ncontract ElectionContract {\r\n    address public owner;\r\n    uint candidateCount;\r\n    uint voterCount;\r\n    bool start;\r\n    bool end;\r\n\r\n    constructor() {\r\n        owner = msg.sender;\r\n        candidateCount = 0;\r\n        voterCount = 0;\r\n        start = false;\r\n        end = false;\r\n    }\r\n\r\n    function getOwner() public view returns(address){\r\n        return owner;\r\n    }\r\n\r\n    modifier onlyAdmin(){\r\n        require((msg.sender == owner));\r\n        _;\r\n    }\r\n\r\n    struct Candidate{\r\n        string name;\r\n        string party;\r\n        string gender;\r\n        uint age;\r\n        uint uniqueId;\r\n        string imghash;\r\n        uint voteCount;\r\n        uint candidateId;\r\n    }\r\n\r\n    mapping(uint => Candidate) public candidateDetails;\r\n\r\n    function addCandidate(string memory _name, string memory _party, string memory _gender, \r\n    uint _age, uint _uniqueId, string memory _imghash) public onlyAdmin{\r\n        Candidate memory newCandidate = Candidate({\r\n            name: _name,\r\n            party: _party,\r\n            gender: _gender,\r\n            age: _age,\r\n            uniqueId: _uniqueId,\r\n            imghash: _imghash,\r\n            voteCount: 0,\r\n            candidateId: candidateCount + 1001\r\n        });\r\n        candidateDetails[candidateCount] = newCandidate;\r\n        candidateCount += 1;\r\n    }\r\n\r\n    function getTotalCandidates() public view returns(uint){\r\n        return candidateCount;\r\n    }\r\n\r\n    struct Voter{\r\n        address voterAdd;\r\n        string name;\r\n        string voterId;\r\n        bool hasVoted;\r\n        bool isVerified;\r\n    }\r\n\r\n    address[] public voters;\r\n    mapping(address => Voter) public voterDetails;\r\n\r\n    function registerVoter(string memory _name, string memory _voterid) public {\r\n        Voter memory newVoter = Voter({\r\n            voterAdd: msg.sender,\r\n            name: _name,\r\n            voterId: _voterid,\r\n            hasVoted: false,\r\n            isVerified: false\r\n        });\r\n        voterDetails[msg.sender] = newVoter;\r\n        voters.push(msg.sender);\r\n        voterCount += 1;\r\n    }\r\n\r\n    function getVoterCount() public view returns (uint){\r\n        return voterCount;\r\n    }\r\n\r\n    function verifyVoter(address _address) public onlyAdmin {\r\n        voterDetails[_address].isVerified = true;\r\n    }\r\n\r\n    function castVote(uint candidateId) public{\r\n        require(voterDetails[msg.sender].hasVoted == false);\r\n        require(voterDetails[msg.sender].isVerified == true);\r\n        require(start == true);\r\n        require(end == false);\r\n        candidateDetails[candidateId - 1001].voteCount += 1;\r\n        voterDetails[msg.sender].hasVoted = true;\r\n    }\r\n\r\n    function startElection() public onlyAdmin {\r\n        start = true;\r\n        end = false;\r\n    }\r\n\r\n    function endElection() public onlyAdmin {\r\n        start = false;\r\n        end = true;\r\n    }\r\n\r\n    function getStart() public view returns (bool) {\r\n        return start;\r\n    }\r\n\r\n    function getEnd() public view returns (bool) {\r\n        return end;\r\n    }\r\n    \r\n}",
  "sourcePath": "C:\\Users\\Dhruv\\OneDrive\\Desktop\\New Fork\\VDapp_MiniProject\\contracts\\ElectionContract.sol",
  "compiler": {
    "name": "solc",
    "version": "0.8.13+commit.abaa5c0e.Emscripten.clang"
  },
  "schemaVersion": "3.4.6",
  "updatedAt": "2022-04-20T13:24:28.541Z",
  "networkType": "ethereum",
  "devdoc": {
    "kind": "dev",
    "methods": {},
    "version": 1
  },
  "userdoc": {
    "kind": "user",
    "methods": {},
    "version": 1
  }
}