{
  "contractName": "ElectionContract",
  "abi": [
    {
      "inputs": [],
      "stateMutability": "nonpayable",
      "type": "constructor"
    },
    {
      "inputs": [
        {
          "internalType": "uint256",
          "name": "",
          "type": "uint256"
        }
      ],
      "name": "candidateDetails",
      "outputs": [
        {
          "internalType": "string",
          "name": "name",
          "type": "string"
        },
        {
          "internalType": "string",
          "name": "party",
          "type": "string"
        },
        {
          "internalType": "uint256",
          "name": "voteCount",
          "type": "uint256"
        },
        {
          "internalType": "uint256",
          "name": "candidateId",
          "type": "uint256"
        }
      ],
      "stateMutability": "view",
      "type": "function",
      "constant": true
    },
    {
      "inputs": [],
      "name": "owner",
      "outputs": [
        {
          "internalType": "address",
          "name": "",
          "type": "address"
        }
      ],
      "stateMutability": "view",
      "type": "function",
      "constant": true
    },
    {
      "inputs": [
        {
          "internalType": "address",
          "name": "",
          "type": "address"
        }
      ],
      "name": "voterDetails",
      "outputs": [
        {
          "internalType": "address",
          "name": "voterAdd",
          "type": "address"
        },
        {
          "internalType": "string",
          "name": "name",
          "type": "string"
        },
        {
          "internalType": "string",
          "name": "voterId",
          "type": "string"
        },
        {
          "internalType": "bool",
          "name": "hasVoted",
          "type": "bool"
        }
      ],
      "stateMutability": "view",
      "type": "function",
      "constant": true
    },
    {
      "inputs": [
        {
          "internalType": "uint256",
          "name": "",
          "type": "uint256"
        }
      ],
      "name": "voters",
      "outputs": [
        {
          "internalType": "address",
          "name": "",
          "type": "address"
        }
      ],
      "stateMutability": "view",
      "type": "function",
      "constant": true
    },
    {
      "inputs": [],
      "name": "getOwner",
      "outputs": [
        {
          "internalType": "address",
          "name": "",
          "type": "address"
        }
      ],
      "stateMutability": "view",
      "type": "function",
      "constant": true
    },
    {
      "inputs": [
        {
          "internalType": "string",
          "name": "_name",
          "type": "string"
        },
        {
          "internalType": "string",
          "name": "_party",
          "type": "string"
        }
      ],
      "name": "addCandidate",
      "outputs": [],
      "stateMutability": "nonpayable",
      "type": "function"
    },
    {
      "inputs": [],
      "name": "getTotalCandidates",
      "outputs": [
        {
          "internalType": "uint256",
          "name": "",
          "type": "uint256"
        }
      ],
      "stateMutability": "view",
      "type": "function",
      "constant": true
    },
    {
      "inputs": [
        {
          "internalType": "string",
          "name": "_name",
          "type": "string"
        },
        {
          "internalType": "string",
          "name": "_voterid",
          "type": "string"
        }
      ],
      "name": "registerVoter",
      "outputs": [],
      "stateMutability": "nonpayable",
      "type": "function"
    },
    {
      "inputs": [],
      "name": "getVoterCount",
      "outputs": [
        {
          "internalType": "uint256",
          "name": "",
          "type": "uint256"
        }
      ],
      "stateMutability": "view",
      "type": "function",
      "constant": true
    },
    {
      "inputs": [
        {
          "internalType": "uint256",
          "name": "candidateId",
          "type": "uint256"
        }
      ],
      "name": "castVote",
      "outputs": [],
      "stateMutability": "nonpayable",
      "type": "function"
    },
    {
      "inputs": [],
      "name": "startElection",
      "outputs": [],
      "stateMutability": "nonpayable",
      "type": "function"
    },
    {
      "inputs": [],
      "name": "endElection",
      "outputs": [],
      "stateMutability": "nonpayable",
      "type": "function"
    },
    {
      "inputs": [],
      "name": "getStart",
      "outputs": [
        {
          "internalType": "bool",
          "name": "",
          "type": "bool"
        }
      ],
      "stateMutability": "view",
      "type": "function",
      "constant": true
    },
    {
      "inputs": [],
      "name": "getEnd",
      "outputs": [
        {
          "internalType": "bool",
          "name": "",
          "type": "bool"
        }
      ],
      "stateMutability": "view",
      "type": "function",
      "constant": true
    }
  ],
  "bytecode": "0x608060405234801561001057600080fd5b50336000806101000a81548173ffffffffffffffffffffffffffffffffffffffff021916908373ffffffffffffffffffffffffffffffffffffffff160217905550600060018190555060006002819055506000600360006101000a81548160ff0219169083151502179055506000600360016101000a81548160ff021916908315150217905550611195806100a66000396000f3fe608060405234801561001057600080fd5b50600436106100ea5760003560e01c806362d73eb81161008c5780638da5cb5b116100665780638da5cb5b146102175780639f05a36d14610235578063c5292c6714610253578063da58c7d914610271576100ea565b806362d73eb8146101d3578063893d20e8146101dd5780638a4c8847146101fb576100ea565b80633eb76b9c116100c85780633eb76b9c146101475780635938750d1461016357806359f78468146101965780636247e532146101a0576100ea565b80630deb56ab146100ef57806311174a291461010d57806326541b561461012b575b600080fd5b6100f76102a1565b6040516101049190610be7565b60405180910390f35b6101156102ab565b6040516101229190610be7565b60405180910390f35b61014560048036038101906101409190610d5c565b6102b5565b005b610161600480360381019061015c9190610e00565b6103c7565b005b61017d60048036038101906101789190610e8b565b610500565b60405161018d9493929190610f6a565b60405180910390f35b61019e61066d565b005b6101ba60048036038101906101b59190610e00565b6106fd565b6040516101ca9493929190610fbd565b60405180910390f35b6101db61083d565b005b6101e56108cd565b6040516101f29190611010565b60405180910390f35b61021560048036038101906102109190610d5c565b6108f6565b005b61021f610a9a565b60405161022c9190611010565b60405180910390f35b61023d610abe565b60405161024a919061102b565b60405180910390f35b61025b610ad5565b604051610268919061102b565b60405180910390f35b61028b60048036038101906102869190610e00565b610aec565b6040516102989190611010565b60405180910390f35b6000600154905090565b6000600254905090565b60008054906101000a900473ffffffffffffffffffffffffffffffffffffffff1673ffffffffffffffffffffffffffffffffffffffff163373ffffffffffffffffffffffffffffffffffffffff161461030d57600080fd5b60006040518060800160405280848152602001838152602001600081526020016103e960015461033d9190611075565b8152509050806004600060015481526020019081526020016000206000820151816000019080519060200190610374929190610b2b565b506020820151816001019080519060200190610391929190610b2b565b50604082015181600201556060820151816003015590505060018060008282546103bb9190611075565b92505081905550505050565b60001515600660003373ffffffffffffffffffffffffffffffffffffffff1673ffffffffffffffffffffffffffffffffffffffff16815260200190815260200160002060030160009054906101000a900460ff1615151461042757600080fd5b60011515600360009054906101000a900460ff1615151461044757600080fd5b60001515600360019054906101000a900460ff1615151461046757600080fd5b6001600460006103e98461047b91906110cb565b8152602001908152602001600020600201600082825461049b9190611075565b925050819055506001600660003373ffffffffffffffffffffffffffffffffffffffff1673ffffffffffffffffffffffffffffffffffffffff16815260200190815260200160002060030160006101000a81548160ff02191690831515021790555050565b60066020528060005260406000206000915090508060000160009054906101000a900473ffffffffffffffffffffffffffffffffffffffff16908060010180546105499061112e565b80601f01602080910402602001604051908101604052809291908181526020018280546105759061112e565b80156105c25780601f10610597576101008083540402835291602001916105c2565b820191906000526020600020905b8154815290600101906020018083116105a557829003601f168201915b5050505050908060020180546105d79061112e565b80601f01602080910402602001604051908101604052809291908181526020018280546106039061112e565b80156106505780601f1061062557610100808354040283529160200191610650565b820191906000526020600020905b81548152906001019060200180831161063357829003601f168201915b5050505050908060030160009054906101000a900460ff16905084565b60008054906101000a900473ffffffffffffffffffffffffffffffffffffffff1673ffffffffffffffffffffffffffffffffffffffff163373ffffffffffffffffffffffffffffffffffffffff16146106c557600080fd5b6000600360006101000a81548160ff0219169083151502179055506001600360016101000a81548160ff021916908315150217905550565b60046020528060005260406000206000915090508060000180546107209061112e565b80601f016020809104026020016040519081016040528092919081815260200182805461074c9061112e565b80156107995780601f1061076e57610100808354040283529160200191610799565b820191906000526020600020905b81548152906001019060200180831161077c57829003601f168201915b5050505050908060010180546107ae9061112e565b80601f01602080910402602001604051908101604052809291908181526020018280546107da9061112e565b80156108275780601f106107fc57610100808354040283529160200191610827565b820191906000526020600020905b81548152906001019060200180831161080a57829003601f168201915b5050505050908060020154908060030154905084565b60008054906101000a900473ffffffffffffffffffffffffffffffffffffffff1673ffffffffffffffffffffffffffffffffffffffff163373ffffffffffffffffffffffffffffffffffffffff161461089557600080fd5b6001600360006101000a81548160ff0219169083151502179055506000600360016101000a81548160ff021916908315150217905550565b60008060009054906101000a900473ffffffffffffffffffffffffffffffffffffffff16905090565b600060405180608001604052803373ffffffffffffffffffffffffffffffffffffffff16815260200184815260200183815260200160001515815250905080600660003373ffffffffffffffffffffffffffffffffffffffff1673ffffffffffffffffffffffffffffffffffffffff16815260200190815260200160002060008201518160000160006101000a81548173ffffffffffffffffffffffffffffffffffffffff021916908373ffffffffffffffffffffffffffffffffffffffff16021790555060208201518160010190805190602001906109d7929190610b2b565b5060408201518160020190805190602001906109f4929190610b2b565b5060608201518160030160006101000a81548160ff0219169083151502179055509050506005339080600181540180825580915050600190039060005260206000200160009091909190916101000a81548173ffffffffffffffffffffffffffffffffffffffff021916908373ffffffffffffffffffffffffffffffffffffffff160217905550600160026000828254610a8e9190611075565b92505081905550505050565b60008054906101000a900473ffffffffffffffffffffffffffffffffffffffff1681565b6000600360019054906101000a900460ff16905090565b6000600360009054906101000a900460ff16905090565b60058181548110610afc57600080fd5b906000526020600020016000915054906101000a900473ffffffffffffffffffffffffffffffffffffffff1681565b828054610b379061112e565b90600052602060002090601f016020900481019282610b595760008555610ba0565b82601f10610b7257805160ff1916838001178555610ba0565b82800160010185558215610ba0579182015b82811115610b9f578251825591602001919060010190610b84565b5b509050610bad9190610bb1565b5090565b5b80821115610bca576000816000905550600101610bb2565b5090565b6000819050919050565b610be181610bce565b82525050565b6000602082019050610bfc6000830184610bd8565b92915050565b6000604051905090565b600080fd5b600080fd5b600080fd5b600080fd5b6000601f19601f8301169050919050565b7f4e487b7100000000000000000000000000000000000000000000000000000000600052604160045260246000fd5b610c6982610c20565b810181811067ffffffffffffffff82111715610c8857610c87610c31565b5b80604052505050565b6000610c9b610c02565b9050610ca78282610c60565b919050565b600067ffffffffffffffff821115610cc757610cc6610c31565b5b610cd082610c20565b9050602081019050919050565b82818337600083830152505050565b6000610cff610cfa84610cac565b610c91565b905082815260208101848484011115610d1b57610d1a610c1b565b5b610d26848285610cdd565b509392505050565b600082601f830112610d4357610d42610c16565b5b8135610d53848260208601610cec565b91505092915050565b60008060408385031215610d7357610d72610c0c565b5b600083013567ffffffffffffffff811115610d9157610d90610c11565b5b610d9d85828601610d2e565b925050602083013567ffffffffffffffff811115610dbe57610dbd610c11565b5b610dca85828601610d2e565b9150509250929050565b610ddd81610bce565b8114610de857600080fd5b50565b600081359050610dfa81610dd4565b92915050565b600060208284031215610e1657610e15610c0c565b5b6000610e2484828501610deb565b91505092915050565b600073ffffffffffffffffffffffffffffffffffffffff82169050919050565b6000610e5882610e2d565b9050919050565b610e6881610e4d565b8114610e7357600080fd5b50565b600081359050610e8581610e5f565b92915050565b600060208284031215610ea157610ea0610c0c565b5b6000610eaf84828501610e76565b91505092915050565b610ec181610e4d565b82525050565b600081519050919050565b600082825260208201905092915050565b60005b83811015610f01578082015181840152602081019050610ee6565b83811115610f10576000848401525b50505050565b6000610f2182610ec7565b610f2b8185610ed2565b9350610f3b818560208601610ee3565b610f4481610c20565b840191505092915050565b60008115159050919050565b610f6481610f4f565b82525050565b6000608082019050610f7f6000830187610eb8565b8181036020830152610f918186610f16565b90508181036040830152610fa58185610f16565b9050610fb46060830184610f5b565b95945050505050565b60006080820190508181036000830152610fd78187610f16565b90508181036020830152610feb8186610f16565b9050610ffa6040830185610bd8565b6110076060830184610bd8565b95945050505050565b60006020820190506110256000830184610eb8565b92915050565b60006020820190506110406000830184610f5b565b92915050565b7f4e487b7100000000000000000000000000000000000000000000000000000000600052601160045260246000fd5b600061108082610bce565b915061108b83610bce565b9250827fffffffffffffffffffffffffffffffffffffffffffffffffffffffffffffffff038211156110c0576110bf611046565b5b828201905092915050565b60006110d682610bce565b91506110e183610bce565b9250828210156110f4576110f3611046565b5b828203905092915050565b7f4e487b7100000000000000000000000000000000000000000000000000000000600052602260045260246000fd5b6000600282049050600182168061114657607f821691505b602082108103611159576111586110ff565b5b5091905056fea26469706673582212200ddfd25119added4551ac57dac7c5171c02976804a53c5d184853832a103a00b64736f6c634300080d0033",
  "immutableReferences": {},
  "source": "// SPDX-License-Identifier: GPL-3.0\r\npragma solidity >=0.4.16 <0.9.0;\r\n\r\ncontract ElectionContract {\r\n    address public owner;\r\n    uint candidateCount;\r\n    uint voterCount;\r\n    bool start;\r\n    bool end;\r\n\r\n    constructor() {\r\n        owner = msg.sender;\r\n        candidateCount = 0;\r\n        voterCount = 0;\r\n        start = false;\r\n        end = false;\r\n    }\r\n\r\n    function getOwner() public view returns(address){\r\n        return owner;\r\n    }\r\n\r\n    modifier onlyAdmin(){\r\n        require((msg.sender == owner));\r\n        _;\r\n    }\r\n\r\n    struct Candidate{\r\n        string name;\r\n        string party;\r\n        uint voteCount;\r\n        uint candidateId;\r\n    }\r\n\r\n    mapping(uint => Candidate) public candidateDetails;\r\n\r\n    function addCandidate(string memory _name, string memory _party) public onlyAdmin{\r\n        Candidate memory newCandidate = Candidate({\r\n            name: _name,\r\n            party: _party,\r\n            voteCount: 0,\r\n            candidateId: candidateCount + 1001\r\n        });\r\n        candidateDetails[candidateCount] = newCandidate;\r\n        candidateCount += 1;\r\n    }\r\n\r\n    function getTotalCandidates() public view returns(uint){\r\n        return candidateCount;\r\n    }\r\n\r\n    struct Voter{\r\n        address voterAdd;\r\n        string name;\r\n        string voterId;\r\n        bool hasVoted;\r\n        //bool isVerified;\r\n    }\r\n\r\n    address[] public voters;\r\n    mapping(address => Voter) public voterDetails;\r\n\r\n    function registerVoter(string memory _name, string memory _voterid) public {\r\n        Voter memory newVoter = Voter({\r\n            voterAdd: msg.sender,\r\n            name: _name,\r\n            voterId: _voterid,\r\n            hasVoted: false\r\n        });\r\n        voterDetails[msg.sender] = newVoter;\r\n        voters.push(msg.sender);\r\n        voterCount += 1;\r\n    }\r\n\r\n    function getVoterCount() public view returns (uint){\r\n        return voterCount;\r\n    }\r\n\r\n    /*\r\n    function to verify voter\r\n    */\r\n\r\n    function castVote(uint candidateId) public{\r\n        require(voterDetails[msg.sender].hasVoted == false);\r\n        require(start == true);\r\n        require(end == false);\r\n        candidateDetails[candidateId - 1001].voteCount += 1;\r\n        voterDetails[msg.sender].hasVoted = true;\r\n    }\r\n\r\n    function startElection() public onlyAdmin {\r\n        start = true;\r\n        end = false;\r\n    }\r\n\r\n    function endElection() public onlyAdmin {\r\n        start = false;\r\n        end = true;\r\n    }\r\n\r\n    function getStart() public view returns (bool) {\r\n        return start;\r\n    }\r\n\r\n    function getEnd() public view returns (bool) {\r\n        return end;\r\n    }\r\n    \r\n}",
  "sourcePath": "C:\\Users\\Admin\\Desktop\\dek\\vishal\\Sem 6\\Miniproject\\final\\VDapp_MiniProject\\contracts\\ElectionContract.sol",
  "compiler": {
    "name": "solc",
    "version": "0.8.13+commit.abaa5c0e.Emscripten.clang"
  },
  "schemaVersion": "3.4.6",
  "updatedAt": "2022-04-17T10:25:31.063Z",
  "networkType": "ethereum",
  "devdoc": {
    "kind": "dev",
    "methods": {},
    "version": 1
  },
  "userdoc": {
    "kind": "user",
    "methods": {},
    "version": 1
  }
}