{
  "contractName": "ElectionContract",
  "abi": [
    {
      "constant": true,
      "inputs": [
        {
          "name": "",
          "type": "address"
        }
      ],
      "name": "voterDetails",
      "outputs": [
        {
          "name": "voterAdd",
          "type": "address"
        },
        {
          "name": "name",
          "type": "string"
        },
        {
          "name": "voterId",
          "type": "string"
        },
        {
          "name": "hasVoted",
          "type": "bool"
        }
      ],
      "payable": false,
      "stateMutability": "view",
      "type": "function"
    },
    {
      "constant": true,
      "inputs": [
        {
          "name": "",
          "type": "uint256"
        }
      ],
      "name": "candidateDetails",
      "outputs": [
        {
          "name": "name",
          "type": "string"
        },
        {
          "name": "party",
          "type": "string"
        },
        {
          "name": "voteCount",
          "type": "uint256"
        },
        {
          "name": "candidateId",
          "type": "uint256"
        }
      ],
      "payable": false,
      "stateMutability": "view",
      "type": "function"
    },
    {
      "constant": true,
      "inputs": [],
      "name": "owner",
      "outputs": [
        {
          "name": "",
          "type": "address"
        }
      ],
      "payable": false,
      "stateMutability": "view",
      "type": "function"
    },
    {
      "constant": true,
      "inputs": [
        {
          "name": "",
          "type": "uint256"
        }
      ],
      "name": "voters",
      "outputs": [
        {
          "name": "",
          "type": "address"
        }
      ],
      "payable": false,
      "stateMutability": "view",
      "type": "function"
    },
    {
      "inputs": [],
      "payable": false,
      "stateMutability": "nonpayable",
      "type": "constructor"
    },
    {
      "constant": true,
      "inputs": [],
      "name": "getOwner",
      "outputs": [
        {
          "name": "",
          "type": "address"
        }
      ],
      "payable": false,
      "stateMutability": "view",
      "type": "function"
    },
    {
      "constant": false,
      "inputs": [
        {
          "name": "_name",
          "type": "string"
        },
        {
          "name": "_party",
          "type": "string"
        }
      ],
      "name": "addCandidate",
      "outputs": [],
      "payable": false,
      "stateMutability": "nonpayable",
      "type": "function"
    },
    {
      "constant": true,
      "inputs": [],
      "name": "getTotalCandidates",
      "outputs": [
        {
          "name": "",
          "type": "uint256"
        }
      ],
      "payable": false,
      "stateMutability": "view",
      "type": "function"
    },
    {
      "constant": false,
      "inputs": [
        {
          "name": "_name",
          "type": "string"
        },
        {
          "name": "_voterid",
          "type": "string"
        }
      ],
      "name": "registerVoter",
      "outputs": [],
      "payable": false,
      "stateMutability": "nonpayable",
      "type": "function"
    },
    {
      "constant": true,
      "inputs": [],
      "name": "getVoterCount",
      "outputs": [
        {
          "name": "",
          "type": "uint256"
        }
      ],
      "payable": false,
      "stateMutability": "view",
      "type": "function"
    },
    {
      "constant": false,
      "inputs": [
        {
          "name": "candidateId",
          "type": "uint256"
        }
      ],
      "name": "castVote",
      "outputs": [],
      "payable": false,
      "stateMutability": "nonpayable",
      "type": "function"
    },
    {
      "constant": false,
      "inputs": [],
      "name": "startElection",
      "outputs": [],
      "payable": false,
      "stateMutability": "nonpayable",
      "type": "function"
    },
    {
      "constant": true,
      "inputs": [],
      "name": "getStart",
      "outputs": [
        {
          "name": "",
          "type": "bool"
        }
      ],
      "payable": false,
      "stateMutability": "view",
      "type": "function"
    },
    {
      "constant": true,
      "inputs": [],
      "name": "getEnd",
      "outputs": [
        {
          "name": "",
          "type": "bool"
        }
      ],
      "payable": false,
      "stateMutability": "view",
      "type": "function"
    }
  ],
  "bytecode": "0x6060604052341561000f57600080fd5b336000806101000a81548173ffffffffffffffffffffffffffffffffffffffff021916908373ffffffffffffffffffffffffffffffffffffffff160217905550600060018190555060006002819055506000600360006101000a81548160ff0219169083151502179055506000600360016101000a81548160ff021916908315150217905550610e32806100a46000396000f300606060405236156100c3576000357c0100000000000000000000000000000000000000000000000000000000900463ffffffff1680630deb56ab146100c857806311174a29146100f157806326541b561461011a5780633eb76b9c146101ba5780635938750d146101dd5780636247e5321461037357806362d73eb8146104c3578063893d20e8146104d85780638a4c88471461052d5780638da5cb5b146105cd5780639f05a36d14610622578063c5292c671461064f578063da58c7d91461067c575b600080fd5b34156100d357600080fd5b6100db6106df565b6040518082815260200191505060405180910390f35b34156100fc57600080fd5b6101046106e9565b6040518082815260200191505060405180910390f35b341561012557600080fd5b6101b8600480803590602001908201803590602001908080601f0160208091040260200160405190810160405280939291908181526020018383808284378201915050505050509190803590602001908201803590602001908080601f016020809104026020016040519081016040528093929190818152602001838380828437820191505050505050919050506106f3565b005b34156101c557600080fd5b6101db60048080359060200190919050506107fd565b005b34156101e857600080fd5b610214600480803573ffffffffffffffffffffffffffffffffffffffff16906020019091905050610926565b604051808573ffffffffffffffffffffffffffffffffffffffff1673ffffffffffffffffffffffffffffffffffffffff1681526020018060200180602001841515151581526020018381038352868181546001816001161561010002031660029004815260200191508054600181600116156101000203166002900480156102dd5780601f106102b2576101008083540402835291602001916102dd565b820191906000526020600020905b8154815290600101906020018083116102c057829003601f168201915b50508381038252858181546001816001161561010002031660029004815260200191508054600181600116156101000203166002900480156103605780601f1061033557610100808354040283529160200191610360565b820191906000526020600020905b81548152906001019060200180831161034357829003601f168201915b5050965050505050505060405180910390f35b341561037e57600080fd5b6103946004808035906020019091905050610981565b60405180806020018060200185815260200184815260200183810383528781815460018160011615610100020316600290048152602001915080546001816001161561010002031660029004801561042d5780601f106104025761010080835404028352916020019161042d565b820191906000526020600020905b81548152906001019060200180831161041057829003601f168201915b50508381038252868181546001816001161561010002031660029004815260200191508054600181600116156101000203166002900480156104b05780601f10610485576101008083540402835291602001916104b0565b820191906000526020600020905b81548152906001019060200180831161049357829003601f168201915b5050965050505050505060405180910390f35b34156104ce57600080fd5b6104d66109af565b005b34156104e357600080fd5b6104eb610a42565b604051808273ffffffffffffffffffffffffffffffffffffffff1673ffffffffffffffffffffffffffffffffffffffff16815260200191505060405180910390f35b341561053857600080fd5b6105cb600480803590602001908201803590602001908080601f0160208091040260200160405190810160405280939291908181526020018383808284378201915050505050509190803590602001908201803590602001908080601f01602080910402602001604051908101604052809392919081815260200183838082843782019150505050505091905050610a6b565b005b34156105d857600080fd5b6105e0610c0d565b604051808273ffffffffffffffffffffffffffffffffffffffff1673ffffffffffffffffffffffffffffffffffffffff16815260200191505060405180910390f35b341561062d57600080fd5b610635610c32565b604051808215151515815260200191505060405180910390f35b341561065a57600080fd5b610662610c49565b604051808215151515815260200191505060405180910390f35b341561068757600080fd5b61069d6004808035906020019091905050610c60565b604051808273ffffffffffffffffffffffffffffffffffffffff1673ffffffffffffffffffffffffffffffffffffffff16815260200191505060405180910390f35b6000600154905090565b6000600254905090565b6106fb610c9f565b6000809054906101000a900473ffffffffffffffffffffffffffffffffffffffff1673ffffffffffffffffffffffffffffffffffffffff163373ffffffffffffffffffffffffffffffffffffffff1614151561075657600080fd5b608060405190810160405280848152602001838152602001600081526020016103e96001540181525090508060046000600154815260200190815260200160002060008201518160000190805190602001906107b3929190610cd4565b5060208201518160010190805190602001906107d0929190610cd4565b50604082015181600201556060820151816003015590505060018060008282540192505081905550505050565b60001515600660003373ffffffffffffffffffffffffffffffffffffffff1673ffffffffffffffffffffffffffffffffffffffff16815260200190815260200160002060030160009054906101000a900460ff16151514151561085f57600080fd5b60011515600360009054906101000a900460ff16151514151561088157600080fd5b60001515600360019054906101000a900460ff1615151415156108a357600080fd5b600160046000838152602001908152602001600020600201600082825401925050819055506001600660003373ffffffffffffffffffffffffffffffffffffffff1673ffffffffffffffffffffffffffffffffffffffff16815260200190815260200160002060030160006101000a81548160ff02191690831515021790555050565b60066020528060005260406000206000915090508060000160009054906101000a900473ffffffffffffffffffffffffffffffffffffffff1690806001019080600201908060030160009054906101000a900460ff16905084565b6004602052806000526040600020600091509050806000019080600101908060020154908060030154905084565b6000809054906101000a900473ffffffffffffffffffffffffffffffffffffffff1673ffffffffffffffffffffffffffffffffffffffff163373ffffffffffffffffffffffffffffffffffffffff16141515610a0a57600080fd5b6001600360006101000a81548160ff0219169083151502179055506000600360016101000a81548160ff021916908315150217905550565b60008060009054906101000a900473ffffffffffffffffffffffffffffffffffffffff16905090565b610a73610d54565b6080604051908101604052803373ffffffffffffffffffffffffffffffffffffffff16815260200184815260200183815260200160001515815250905080600660003373ffffffffffffffffffffffffffffffffffffffff1673ffffffffffffffffffffffffffffffffffffffff16815260200190815260200160002060008201518160000160006101000a81548173ffffffffffffffffffffffffffffffffffffffff021916908373ffffffffffffffffffffffffffffffffffffffff1602179055506020820151816001019080519060200190610b53929190610cd4565b506040820151816002019080519060200190610b70929190610cd4565b5060608201518160030160006101000a81548160ff02191690831515021790555090505060058054806001018281610ba89190610da1565b9160005260206000209001600033909190916101000a81548173ffffffffffffffffffffffffffffffffffffffff021916908373ffffffffffffffffffffffffffffffffffffffff160217905550506001600260008282540192505081905550505050565b6000809054906101000a900473ffffffffffffffffffffffffffffffffffffffff1681565b6000600360019054906101000a900460ff16905090565b6000600360009054906101000a900460ff16905090565b600581815481101515610c6f57fe5b90600052602060002090016000915054906101000a900473ffffffffffffffffffffffffffffffffffffffff1681565b608060405190810160405280610cb3610dcd565b8152602001610cc0610dcd565b815260200160008152602001600081525090565b828054600181600116156101000203166002900490600052602060002090601f016020900481019282601f10610d1557805160ff1916838001178555610d43565b82800160010185558215610d43579182015b82811115610d42578251825591602001919060010190610d27565b5b509050610d509190610de1565b5090565b608060405190810160405280600073ffffffffffffffffffffffffffffffffffffffff168152602001610d85610dcd565b8152602001610d92610dcd565b81526020016000151581525090565b815481835581811511610dc857818360005260206000209182019101610dc79190610de1565b5b505050565b602060405190810160405280600081525090565b610e0391905b80821115610dff576000816000905550600101610de7565b5090565b905600a165627a7a72305820f9c71bf4a683037ecde0f8b810dc5c1b5df8b701d0949cb28229a4c1969f9d7c0029",
  "source": "// SPDX-License-Identifier: MIT\r\npragma solidity ^0.4.17;\r\n\r\ncontract ElectionContract {\r\n    address public owner;\r\n    uint candidateCount;\r\n    uint voterCount;\r\n    bool start;\r\n    bool end;\r\n\r\n    function ElectionContract() public{\r\n        owner = msg.sender;\r\n        candidateCount = 0;\r\n        voterCount = 0;\r\n        start = false;\r\n        end = false;\r\n    }\r\n\r\n    function getOwner() public view returns(address){\r\n        return owner;\r\n    }\r\n\r\n    modifier onlyAdmin(){\r\n        require((msg.sender == owner));\r\n        _;\r\n    }\r\n\r\n    struct Candidate{\r\n        string name;\r\n        string party;\r\n        uint voteCount;\r\n        uint candidateId;\r\n    }\r\n\r\n    mapping(uint => Candidate) public candidateDetails;\r\n\r\n    function addCandidate(string _name, string _party) public onlyAdmin{\r\n        Candidate memory newCandidate = Candidate({\r\n            name: _name,\r\n            party: _party,\r\n            voteCount: 0,\r\n            candidateId: candidateCount + 1001\r\n        });\r\n        candidateDetails[candidateCount] = newCandidate;\r\n        candidateCount += 1;\r\n    }\r\n\r\n    function getTotalCandidates() public view returns(uint){\r\n        return candidateCount;\r\n    }\r\n\r\n    struct Voter{\r\n        address voterAdd;\r\n        string name;\r\n        string voterId;\r\n        bool hasVoted;\r\n        //bool isVerified;\r\n    }\r\n\r\n    address[] public voters;\r\n    mapping(address => Voter) public voterDetails;\r\n\r\n    function registerVoter(string _name, string _voterid) public {\r\n        Voter memory newVoter = Voter({\r\n            voterAdd: msg.sender,\r\n            name: _name,\r\n            voterId: _voterid,\r\n            hasVoted: false\r\n        });\r\n        voterDetails[msg.sender] = newVoter;\r\n        voters.push(msg.sender);\r\n        voterCount += 1;\r\n    }\r\n\r\n    function getVoterCount() public view returns (uint){\r\n        return voterCount;\r\n    }\r\n\r\n    /*\r\n    function to verify voter\r\n    */\r\n\r\n    function castVote(uint candidateId) public{\r\n        require(voterDetails[msg.sender].hasVoted == false);\r\n        require(start == true);\r\n        require(end == false);\r\n        candidateDetails[candidateId].voteCount += 1;\r\n        voterDetails[msg.sender].hasVoted = true;\r\n    }\r\n\r\n    function startElection() public onlyAdmin {\r\n        start = true;\r\n        end = false;\r\n    }\r\n\r\n    function getStart() public view returns (bool) {\r\n        return start;\r\n    }\r\n\r\n    function getEnd() public view returns (bool) {\r\n        return end;\r\n    }\r\n    \r\n}",
  "sourcePath": "C:\\Users\\PANDIT\\Desktop\\BlockchainDAPPs\\VDapp_project\\contracts\\ElectionContract.sol",
  "compiler": {
    "name": "solc",
    "version": "0.4.17+commit.bdeb9e52.Emscripten.clang"
  },
  "schemaVersion": "3.4.6",
  "updatedAt": "2022-03-28T09:59:38.521Z",
  "networkType": "ethereum",
  "devdoc": {
    "methods": {}
  },
  "userdoc": {
    "methods": {}
  }
}