{
  "contractName": "ElectionContract",
  "abi": [
    {
      "inputs": [],
      "stateMutability": "nonpayable",
      "type": "constructor"
    },
    {
      "inputs": [
        {
          "internalType": "uint256",
          "name": "",
          "type": "uint256"
        }
      ],
      "name": "candidateDetails",
      "outputs": [
        {
          "internalType": "string",
          "name": "name",
          "type": "string"
        },
        {
          "internalType": "string",
          "name": "party",
          "type": "string"
        },
        {
          "internalType": "string",
          "name": "gender",
          "type": "string"
        },
        {
          "internalType": "uint256",
          "name": "age",
          "type": "uint256"
        },
        {
          "internalType": "uint256",
          "name": "uniqueId",
          "type": "uint256"
        },
        {
          "internalType": "string",
          "name": "imghash",
          "type": "string"
        },
        {
          "internalType": "uint256",
          "name": "voteCount",
          "type": "uint256"
        },
        {
          "internalType": "uint256",
          "name": "candidateId",
          "type": "uint256"
        }
      ],
      "stateMutability": "view",
      "type": "function",
      "constant": true
    },
    {
      "inputs": [],
      "name": "owner",
      "outputs": [
        {
          "internalType": "address",
          "name": "",
          "type": "address"
        }
      ],
      "stateMutability": "view",
      "type": "function",
      "constant": true
    },
    {
      "inputs": [
        {
          "internalType": "address",
          "name": "",
          "type": "address"
        }
      ],
      "name": "voterDetails",
      "outputs": [
        {
          "internalType": "address",
          "name": "voterAdd",
          "type": "address"
        },
        {
          "internalType": "string",
          "name": "name",
          "type": "string"
        },
        {
          "internalType": "string",
          "name": "voterId",
          "type": "string"
        },
        {
          "internalType": "bool",
          "name": "hasVoted",
          "type": "bool"
        }
      ],
      "stateMutability": "view",
      "type": "function",
      "constant": true
    },
    {
      "inputs": [
        {
          "internalType": "uint256",
          "name": "",
          "type": "uint256"
        }
      ],
      "name": "voters",
      "outputs": [
        {
          "internalType": "address",
          "name": "",
          "type": "address"
        }
      ],
      "stateMutability": "view",
      "type": "function",
      "constant": true
    },
    {
      "inputs": [],
      "name": "getOwner",
      "outputs": [
        {
          "internalType": "address",
          "name": "",
          "type": "address"
        }
      ],
      "stateMutability": "view",
      "type": "function",
      "constant": true
    },
    {
      "inputs": [
        {
          "internalType": "string",
          "name": "_name",
          "type": "string"
        },
        {
          "internalType": "string",
          "name": "_party",
          "type": "string"
        },
        {
          "internalType": "string",
          "name": "_gender",
          "type": "string"
        },
        {
          "internalType": "uint256",
          "name": "_age",
          "type": "uint256"
        },
        {
          "internalType": "uint256",
          "name": "_uniqueId",
          "type": "uint256"
        },
        {
          "internalType": "string",
          "name": "_imghash",
          "type": "string"
        }
      ],
      "name": "addCandidate",
      "outputs": [],
      "stateMutability": "nonpayable",
      "type": "function"
    },
    {
      "inputs": [],
      "name": "getTotalCandidates",
      "outputs": [
        {
          "internalType": "uint256",
          "name": "",
          "type": "uint256"
        }
      ],
      "stateMutability": "view",
      "type": "function",
      "constant": true
    },
    {
      "inputs": [
        {
          "internalType": "string",
          "name": "_name",
          "type": "string"
        },
        {
          "internalType": "string",
          "name": "_voterid",
          "type": "string"
        }
      ],
      "name": "registerVoter",
      "outputs": [],
      "stateMutability": "nonpayable",
      "type": "function"
    },
    {
      "inputs": [],
      "name": "getVoterCount",
      "outputs": [
        {
          "internalType": "uint256",
          "name": "",
          "type": "uint256"
        }
      ],
      "stateMutability": "view",
      "type": "function",
      "constant": true
    },
    {
      "inputs": [
        {
          "internalType": "uint256",
          "name": "candidateId",
          "type": "uint256"
        }
      ],
      "name": "castVote",
      "outputs": [],
      "stateMutability": "nonpayable",
      "type": "function"
    },
    {
      "inputs": [],
      "name": "startElection",
      "outputs": [],
      "stateMutability": "nonpayable",
      "type": "function"
    },
    {
      "inputs": [],
      "name": "endElection",
      "outputs": [],
      "stateMutability": "nonpayable",
      "type": "function"
    },
    {
      "inputs": [],
      "name": "getStart",
      "outputs": [
        {
          "internalType": "bool",
          "name": "",
          "type": "bool"
        }
      ],
      "stateMutability": "view",
      "type": "function",
      "constant": true
    },
    {
      "inputs": [],
      "name": "getEnd",
      "outputs": [
        {
          "internalType": "bool",
          "name": "",
          "type": "bool"
        }
      ],
      "stateMutability": "view",
      "type": "function",
      "constant": true
    }
  ],
  "bytecode": "0x608060405234801561001057600080fd5b50336000806101000a81548173ffffffffffffffffffffffffffffffffffffffff021916908373ffffffffffffffffffffffffffffffffffffffff160217905550600060018190555060006002819055506000600360006101000a81548160ff0219169083151502179055506000600360016101000a81548160ff021916908315150217905550611470806100a66000396000f3fe608060405234801561001057600080fd5b50600436106100ea5760003560e01c806362d73eb81161008c5780638da5cb5b116100665780638da5cb5b1461021b5780639f05a36d14610239578063c5292c6714610257578063da58c7d914610275576100ea565b806362d73eb8146101d7578063893d20e8146101e15780638a4c8847146101ff576100ea565b80633eb76b9c116100c85780633eb76b9c146101475780635938750d1461016357806359f78468146101965780636247e532146101a0576100ea565b80630deb56ab146100ef57806311174a291461010d57806314f80f8e1461012b575b600080fd5b6100f76102a5565b6040516101049190610d7e565b60405180910390f35b6101156102af565b6040516101229190610d7e565b60405180910390f35b61014560048036038101906101409190610f1f565b6102b9565b005b610161600480360381019061015c919061101c565b610436565b005b61017d600480360381019061017891906110a7565b61056f565b60405161018d9493929190611186565b60405180910390f35b61019e6106dc565b005b6101ba60048036038101906101b5919061101c565b61076c565b6040516101ce9897969594939291906111d9565b60405180910390f35b6101df6109d4565b005b6101e9610a64565b6040516101f69190611273565b60405180910390f35b6102196004803603810190610214919061128e565b610a8d565b005b610223610c31565b6040516102309190611273565b60405180910390f35b610241610c55565b60405161024e9190611306565b60405180910390f35b61025f610c6c565b60405161026c9190611306565b60405180910390f35b61028f600480360381019061028a919061101c565b610c83565b60405161029c9190611273565b60405180910390f35b6000600154905090565b6000600254905090565b60008054906101000a900473ffffffffffffffffffffffffffffffffffffffff1673ffffffffffffffffffffffffffffffffffffffff163373ffffffffffffffffffffffffffffffffffffffff161461031157600080fd5b6000604051806101000160405280888152602001878152602001868152602001858152602001848152602001838152602001600081526020016103e960015461035a9190611350565b8152509050806004600060015481526020019081526020016000206000820151816000019080519060200190610391929190610cc2565b5060208201518160010190805190602001906103ae929190610cc2565b5060408201518160020190805190602001906103cb929190610cc2565b50606082015181600301556080820151816004015560a08201518160050190805190602001906103fc929190610cc2565b5060c0820151816006015560e0820151816007015590505060018060008282546104269190611350565b9250508190555050505050505050565b60001515600660003373ffffffffffffffffffffffffffffffffffffffff1673ffffffffffffffffffffffffffffffffffffffff16815260200190815260200160002060030160009054906101000a900460ff1615151461049657600080fd5b60011515600360009054906101000a900460ff161515146104b657600080fd5b60001515600360019054906101000a900460ff161515146104d657600080fd5b6001600460006103e9846104ea91906113a6565b8152602001908152602001600020600601600082825461050a9190611350565b925050819055506001600660003373ffffffffffffffffffffffffffffffffffffffff1673ffffffffffffffffffffffffffffffffffffffff16815260200190815260200160002060030160006101000a81548160ff02191690831515021790555050565b60066020528060005260406000206000915090508060000160009054906101000a900473ffffffffffffffffffffffffffffffffffffffff16908060010180546105b890611409565b80601f01602080910402602001604051908101604052809291908181526020018280546105e490611409565b80156106315780601f1061060657610100808354040283529160200191610631565b820191906000526020600020905b81548152906001019060200180831161061457829003601f168201915b50505050509080600201805461064690611409565b80601f016020809104026020016040519081016040528092919081815260200182805461067290611409565b80156106bf5780601f10610694576101008083540402835291602001916106bf565b820191906000526020600020905b8154815290600101906020018083116106a257829003601f168201915b5050505050908060030160009054906101000a900460ff16905084565b60008054906101000a900473ffffffffffffffffffffffffffffffffffffffff1673ffffffffffffffffffffffffffffffffffffffff163373ffffffffffffffffffffffffffffffffffffffff161461073457600080fd5b6000600360006101000a81548160ff0219169083151502179055506001600360016101000a81548160ff021916908315150217905550565b600460205280600052604060002060009150905080600001805461078f90611409565b80601f01602080910402602001604051908101604052809291908181526020018280546107bb90611409565b80156108085780601f106107dd57610100808354040283529160200191610808565b820191906000526020600020905b8154815290600101906020018083116107eb57829003601f168201915b50505050509080600101805461081d90611409565b80601f016020809104026020016040519081016040528092919081815260200182805461084990611409565b80156108965780601f1061086b57610100808354040283529160200191610896565b820191906000526020600020905b81548152906001019060200180831161087957829003601f168201915b5050505050908060020180546108ab90611409565b80601f01602080910402602001604051908101604052809291908181526020018280546108d790611409565b80156109245780601f106108f957610100808354040283529160200191610924565b820191906000526020600020905b81548152906001019060200180831161090757829003601f168201915b50505050509080600301549080600401549080600501805461094590611409565b80601f016020809104026020016040519081016040528092919081815260200182805461097190611409565b80156109be5780601f10610993576101008083540402835291602001916109be565b820191906000526020600020905b8154815290600101906020018083116109a157829003601f168201915b5050505050908060060154908060070154905088565b60008054906101000a900473ffffffffffffffffffffffffffffffffffffffff1673ffffffffffffffffffffffffffffffffffffffff163373ffffffffffffffffffffffffffffffffffffffff1614610a2c57600080fd5b6001600360006101000a81548160ff0219169083151502179055506000600360016101000a81548160ff021916908315150217905550565b60008060009054906101000a900473ffffffffffffffffffffffffffffffffffffffff16905090565b600060405180608001604052803373ffffffffffffffffffffffffffffffffffffffff16815260200184815260200183815260200160001515815250905080600660003373ffffffffffffffffffffffffffffffffffffffff1673ffffffffffffffffffffffffffffffffffffffff16815260200190815260200160002060008201518160000160006101000a81548173ffffffffffffffffffffffffffffffffffffffff021916908373ffffffffffffffffffffffffffffffffffffffff1602179055506020820151816001019080519060200190610b6e929190610cc2565b506040820151816002019080519060200190610b8b929190610cc2565b5060608201518160030160006101000a81548160ff0219169083151502179055509050506005339080600181540180825580915050600190039060005260206000200160009091909190916101000a81548173ffffffffffffffffffffffffffffffffffffffff021916908373ffffffffffffffffffffffffffffffffffffffff160217905550600160026000828254610c259190611350565b92505081905550505050565b60008054906101000a900473ffffffffffffffffffffffffffffffffffffffff1681565b6000600360019054906101000a900460ff16905090565b6000600360009054906101000a900460ff16905090565b60058181548110610c9357600080fd5b906000526020600020016000915054906101000a900473ffffffffffffffffffffffffffffffffffffffff1681565b828054610cce90611409565b90600052602060002090601f016020900481019282610cf05760008555610d37565b82601f10610d0957805160ff1916838001178555610d37565b82800160010185558215610d37579182015b82811115610d36578251825591602001919060010190610d1b565b5b509050610d449190610d48565b5090565b5b80821115610d61576000816000905550600101610d49565b5090565b6000819050919050565b610d7881610d65565b82525050565b6000602082019050610d936000830184610d6f565b92915050565b6000604051905090565b600080fd5b600080fd5b600080fd5b600080fd5b6000601f19601f8301169050919050565b7f4e487b7100000000000000000000000000000000000000000000000000000000600052604160045260246000fd5b610e0082610db7565b810181811067ffffffffffffffff82111715610e1f57610e1e610dc8565b5b80604052505050565b6000610e32610d99565b9050610e3e8282610df7565b919050565b600067ffffffffffffffff821115610e5e57610e5d610dc8565b5b610e6782610db7565b9050602081019050919050565b82818337600083830152505050565b6000610e96610e9184610e43565b610e28565b905082815260208101848484011115610eb257610eb1610db2565b5b610ebd848285610e74565b509392505050565b600082601f830112610eda57610ed9610dad565b5b8135610eea848260208601610e83565b91505092915050565b610efc81610d65565b8114610f0757600080fd5b50565b600081359050610f1981610ef3565b92915050565b60008060008060008060c08789031215610f3c57610f3b610da3565b5b600087013567ffffffffffffffff811115610f5a57610f59610da8565b5b610f6689828a01610ec5565b965050602087013567ffffffffffffffff811115610f8757610f86610da8565b5b610f9389828a01610ec5565b955050604087013567ffffffffffffffff811115610fb457610fb3610da8565b5b610fc089828a01610ec5565b9450506060610fd189828a01610f0a565b9350506080610fe289828a01610f0a565b92505060a087013567ffffffffffffffff81111561100357611002610da8565b5b61100f89828a01610ec5565b9150509295509295509295565b60006020828403121561103257611031610da3565b5b600061104084828501610f0a565b91505092915050565b600073ffffffffffffffffffffffffffffffffffffffff82169050919050565b600061107482611049565b9050919050565b61108481611069565b811461108f57600080fd5b50565b6000813590506110a18161107b565b92915050565b6000602082840312156110bd576110bc610da3565b5b60006110cb84828501611092565b91505092915050565b6110dd81611069565b82525050565b600081519050919050565b600082825260208201905092915050565b60005b8381101561111d578082015181840152602081019050611102565b8381111561112c576000848401525b50505050565b600061113d826110e3565b61114781856110ee565b93506111578185602086016110ff565b61116081610db7565b840191505092915050565b60008115159050919050565b6111808161116b565b82525050565b600060808201905061119b60008301876110d4565b81810360208301526111ad8186611132565b905081810360408301526111c18185611132565b90506111d06060830184611177565b95945050505050565b60006101008201905081810360008301526111f4818b611132565b90508181036020830152611208818a611132565b9050818103604083015261121c8189611132565b905061122b6060830188610d6f565b6112386080830187610d6f565b81810360a083015261124a8186611132565b905061125960c0830185610d6f565b61126660e0830184610d6f565b9998505050505050505050565b600060208201905061128860008301846110d4565b92915050565b600080604083850312156112a5576112a4610da3565b5b600083013567ffffffffffffffff8111156112c3576112c2610da8565b5b6112cf85828601610ec5565b925050602083013567ffffffffffffffff8111156112f0576112ef610da8565b5b6112fc85828601610ec5565b9150509250929050565b600060208201905061131b6000830184611177565b92915050565b7f4e487b7100000000000000000000000000000000000000000000000000000000600052601160045260246000fd5b600061135b82610d65565b915061136683610d65565b9250827fffffffffffffffffffffffffffffffffffffffffffffffffffffffffffffffff0382111561139b5761139a611321565b5b828201905092915050565b60006113b182610d65565b91506113bc83610d65565b9250828210156113cf576113ce611321565b5b828203905092915050565b7f4e487b7100000000000000000000000000000000000000000000000000000000600052602260045260246000fd5b6000600282049050600182168061142157607f821691505b602082108103611434576114336113da565b5b5091905056fea2646970667358221220761d54c8ebe802cc8ea2be63fd1fb82cd3ca8b754716d3632ab8d6cb3254413b64736f6c634300080d0033",
  "immutableReferences": {},
  "source": "// SPDX-License-Identifier: GPL-3.0\r\npragma solidity >=0.4.16 <0.9.0;\r\n\r\ncontract ElectionContract {\r\n    address public owner;\r\n    uint candidateCount;\r\n    uint voterCount;\r\n    bool start;\r\n    bool end;\r\n\r\n    constructor() {\r\n        owner = msg.sender;\r\n        candidateCount = 0;\r\n        voterCount = 0;\r\n        start = false;\r\n        end = false;\r\n    }\r\n\r\n    function getOwner() public view returns(address){\r\n        return owner;\r\n    }\r\n\r\n    modifier onlyAdmin(){\r\n        require((msg.sender == owner));\r\n        _;\r\n    }\r\n\r\n    struct Candidate{\r\n        string name;\r\n        string party;\r\n        string gender;\r\n        uint age;\r\n        uint uniqueId;\r\n        string imghash;\r\n        uint voteCount;\r\n        uint candidateId;\r\n    }\r\n\r\n    mapping(uint => Candidate) public candidateDetails;\r\n\r\n    function addCandidate(string memory _name, string memory _party, string memory _gender, \r\n    uint _age, uint _uniqueId, string memory _imghash) public onlyAdmin{\r\n        Candidate memory newCandidate = Candidate({\r\n            name: _name,\r\n            party: _party,\r\n            gender: _gender,\r\n            age: _age,\r\n            uniqueId: _uniqueId,\r\n            imghash: _imghash,\r\n            voteCount: 0,\r\n            candidateId: candidateCount + 1001\r\n        });\r\n        candidateDetails[candidateCount] = newCandidate;\r\n        candidateCount += 1;\r\n    }\r\n\r\n    function getTotalCandidates() public view returns(uint){\r\n        return candidateCount;\r\n    }\r\n\r\n    struct Voter{\r\n        address voterAdd;\r\n        string name;\r\n        string voterId;\r\n        bool hasVoted;\r\n        //bool isVerified;\r\n    }\r\n\r\n    address[] public voters;\r\n    mapping(address => Voter) public voterDetails;\r\n\r\n    function registerVoter(string memory _name, string memory _voterid) public {\r\n        Voter memory newVoter = Voter({\r\n            voterAdd: msg.sender,\r\n            name: _name,\r\n            voterId: _voterid,\r\n            hasVoted: false\r\n        });\r\n        voterDetails[msg.sender] = newVoter;\r\n        voters.push(msg.sender);\r\n        voterCount += 1;\r\n    }\r\n\r\n    function getVoterCount() public view returns (uint){\r\n        return voterCount;\r\n    }\r\n\r\n    /*\r\n    function to verify voter\r\n    */\r\n\r\n    function castVote(uint candidateId) public{\r\n        require(voterDetails[msg.sender].hasVoted == false);\r\n        require(start == true);\r\n        require(end == false);\r\n        candidateDetails[candidateId - 1001].voteCount += 1;\r\n        voterDetails[msg.sender].hasVoted = true;\r\n    }\r\n\r\n    function startElection() public onlyAdmin {\r\n        start = true;\r\n        end = false;\r\n    }\r\n\r\n    function endElection() public onlyAdmin {\r\n        start = false;\r\n        end = true;\r\n    }\r\n\r\n    function getStart() public view returns (bool) {\r\n        return start;\r\n    }\r\n\r\n    function getEnd() public view returns (bool) {\r\n        return end;\r\n    }\r\n    \r\n}",
  "sourcePath": "C:\\Users\\Admin\\Desktop\\dek\\vishal\\Sem 6\\Miniproject\\final\\VDapp_MiniProject\\contracts\\ElectionContract.sol",
  "compiler": {
    "name": "solc",
    "version": "0.8.13+commit.abaa5c0e.Emscripten.clang"
  },
  "schemaVersion": "3.4.6",
  "updatedAt": "2022-04-18T14:24:52.692Z",
  "networkType": "ethereum",
  "devdoc": {
    "kind": "dev",
    "methods": {},
    "version": 1
  },
  "userdoc": {
    "kind": "user",
    "methods": {},
    "version": 1
  }
}