{
  "contractName": "ElectionContract",
  "abi": [
    {
      "inputs": [],
      "stateMutability": "nonpayable",
      "type": "constructor"
    },
    {
      "anonymous": false,
      "inputs": [
        {
          "indexed": true,
          "internalType": "uint256",
          "name": "_candidateId",
          "type": "uint256"
        }
      ],
      "name": "voteEvent",
      "type": "event"
    },
    {
      "anonymous": false,
      "inputs": [
        {
          "indexed": false,
          "internalType": "string",
          "name": "_voterId",
          "type": "string"
        }
      ],
      "name": "voterRegister",
      "type": "event"
    },
    {
      "inputs": [
        {
          "internalType": "uint256",
          "name": "",
          "type": "uint256"
        }
      ],
      "name": "candidateDetails",
      "outputs": [
        {
          "internalType": "string",
          "name": "name",
          "type": "string"
        },
        {
          "internalType": "string",
          "name": "party",
          "type": "string"
        },
        {
          "internalType": "string",
          "name": "gender",
          "type": "string"
        },
        {
          "internalType": "uint256",
          "name": "age",
          "type": "uint256"
        },
        {
          "internalType": "uint256",
          "name": "uniqueId",
          "type": "uint256"
        },
        {
          "internalType": "string",
          "name": "imghash",
          "type": "string"
        },
        {
          "internalType": "uint256",
          "name": "voteCount",
          "type": "uint256"
        },
        {
          "internalType": "uint256",
          "name": "candidateId",
          "type": "uint256"
        }
      ],
      "stateMutability": "view",
      "type": "function",
      "constant": true
    },
    {
      "inputs": [],
      "name": "owner",
      "outputs": [
        {
          "internalType": "address",
          "name": "",
          "type": "address"
        }
      ],
      "stateMutability": "view",
      "type": "function",
      "constant": true
    },
    {
      "inputs": [
        {
          "internalType": "address",
          "name": "",
          "type": "address"
        }
      ],
      "name": "voterDetails",
      "outputs": [
        {
          "internalType": "address",
          "name": "voterAdd",
          "type": "address"
        },
        {
          "internalType": "string",
          "name": "name",
          "type": "string"
        },
        {
          "internalType": "string",
          "name": "voterId",
          "type": "string"
        },
        {
          "internalType": "bool",
          "name": "hasVoted",
          "type": "bool"
        },
        {
          "internalType": "bool",
          "name": "isVerified",
          "type": "bool"
        }
      ],
      "stateMutability": "view",
      "type": "function",
      "constant": true
    },
    {
      "inputs": [
        {
          "internalType": "uint256",
          "name": "",
          "type": "uint256"
        }
      ],
      "name": "voters",
      "outputs": [
        {
          "internalType": "address",
          "name": "",
          "type": "address"
        }
      ],
      "stateMutability": "view",
      "type": "function",
      "constant": true
    },
    {
      "inputs": [],
      "name": "getOwner",
      "outputs": [
        {
          "internalType": "address",
          "name": "",
          "type": "address"
        }
      ],
      "stateMutability": "view",
      "type": "function",
      "constant": true
    },
    {
      "inputs": [
        {
          "internalType": "string",
          "name": "_name",
          "type": "string"
        },
        {
          "internalType": "string",
          "name": "_party",
          "type": "string"
        },
        {
          "internalType": "string",
          "name": "_gender",
          "type": "string"
        },
        {
          "internalType": "uint256",
          "name": "_age",
          "type": "uint256"
        },
        {
          "internalType": "uint256",
          "name": "_uniqueId",
          "type": "uint256"
        },
        {
          "internalType": "string",
          "name": "_imghash",
          "type": "string"
        }
      ],
      "name": "addCandidate",
      "outputs": [],
      "stateMutability": "nonpayable",
      "type": "function"
    },
    {
      "inputs": [],
      "name": "getTotalCandidates",
      "outputs": [
        {
          "internalType": "uint256",
          "name": "",
          "type": "uint256"
        }
      ],
      "stateMutability": "view",
      "type": "function",
      "constant": true
    },
    {
      "inputs": [
        {
          "internalType": "string",
          "name": "_name",
          "type": "string"
        },
        {
          "internalType": "string",
          "name": "_voterId",
          "type": "string"
        }
      ],
      "name": "registerVoter",
      "outputs": [],
      "stateMutability": "nonpayable",
      "type": "function"
    },
    {
      "inputs": [],
      "name": "getVoterCount",
      "outputs": [
        {
          "internalType": "uint256",
          "name": "",
          "type": "uint256"
        }
      ],
      "stateMutability": "view",
      "type": "function",
      "constant": true
    },
    {
      "inputs": [
        {
          "internalType": "address",
          "name": "_address",
          "type": "address"
        }
      ],
      "name": "verifyVoter",
      "outputs": [],
      "stateMutability": "nonpayable",
      "type": "function"
    },
    {
      "inputs": [
        {
          "internalType": "uint256",
          "name": "candidateId",
          "type": "uint256"
        }
      ],
      "name": "castVote",
      "outputs": [],
      "stateMutability": "nonpayable",
      "type": "function"
    },
    {
      "inputs": [],
      "name": "startElection",
      "outputs": [],
      "stateMutability": "nonpayable",
      "type": "function"
    },
    {
      "inputs": [],
      "name": "endElection",
      "outputs": [],
      "stateMutability": "nonpayable",
      "type": "function"
    },
    {
      "inputs": [],
      "name": "getStart",
      "outputs": [
        {
          "internalType": "bool",
          "name": "",
          "type": "bool"
        }
      ],
      "stateMutability": "view",
      "type": "function",
      "constant": true
    },
    {
      "inputs": [],
      "name": "getEnd",
      "outputs": [
        {
          "internalType": "bool",
          "name": "",
          "type": "bool"
        }
      ],
      "stateMutability": "view",
      "type": "function",
      "constant": true
    }
  ],
  "bytecode": "0x608060405234801561001057600080fd5b50336000806101000a81548173ffffffffffffffffffffffffffffffffffffffff021916908373ffffffffffffffffffffffffffffffffffffffff160217905550600060018190555060006002819055506000600360006101000a81548160ff0219169083151502179055506000600360016101000a81548160ff02191690831515021790555061167e806100a66000396000f3fe608060405234801561001057600080fd5b50600436106100f55760003560e01c80636247e532116100975780638da5cb5b116100665780638da5cb5b146102435780639f05a36d14610261578063c5292c671461027f578063da58c7d91461029d576100f5565b80636247e532146101c857806362d73eb8146101ff578063893d20e8146102095780638a4c884714610227576100f5565b806314f80f8e116100d357806314f80f8e146101525780633eb76b9c1461016e5780635938750d1461018a57806359f78468146101be576100f5565b806309bd0950146100fa5780630deb56ab1461011657806311174a2914610134575b600080fd5b610114600480360381019061010f9190610fb5565b6102cd565b005b61011e610383565b60405161012b9190610ffb565b60405180910390f35b61013c61038d565b6040516101499190610ffb565b60405180910390f35b61016c60048036038101906101679190611188565b610397565b005b61018860048036038101906101839190611285565b610514565b005b6101a4600480360381019061019f9190610fb5565b6106da565b6040516101b5959493929190611364565b60405180910390f35b6101c661085a565b005b6101e260048036038101906101dd9190611285565b6108ea565b6040516101f69897969594939291906113c5565b60405180910390f35b610207610b52565b005b610211610be2565b60405161021e919061145f565b60405180910390f35b610241600480360381019061023c919061147a565b610c0b565b005b61024b610e0f565b604051610258919061145f565b60405180910390f35b610269610e33565b60405161027691906114f2565b60405180910390f35b610287610e4a565b60405161029491906114f2565b60405180910390f35b6102b760048036038101906102b29190611285565b610e61565b6040516102c4919061145f565b60405180910390f35b60008054906101000a900473ffffffffffffffffffffffffffffffffffffffff1673ffffffffffffffffffffffffffffffffffffffff163373ffffffffffffffffffffffffffffffffffffffff161461032557600080fd5b6001600660008373ffffffffffffffffffffffffffffffffffffffff1673ffffffffffffffffffffffffffffffffffffffff16815260200190815260200160002060030160016101000a81548160ff02191690831515021790555050565b6000600154905090565b6000600254905090565b60008054906101000a900473ffffffffffffffffffffffffffffffffffffffff1673ffffffffffffffffffffffffffffffffffffffff163373ffffffffffffffffffffffffffffffffffffffff16146103ef57600080fd5b6000604051806101000160405280888152602001878152602001868152602001858152602001848152602001838152602001600081526020016103e9600154610438919061153c565b815250905080600460006001548152602001908152602001600020600082015181600001908051906020019061046f929190610ea0565b50602082015181600101908051906020019061048c929190610ea0565b5060408201518160020190805190602001906104a9929190610ea0565b50606082015181600301556080820151816004015560a08201518160050190805190602001906104da929190610ea0565b5060c0820151816006015560e082015181600701559050506001806000828254610504919061153c565b9250508190555050505050505050565b60001515600660003373ffffffffffffffffffffffffffffffffffffffff1673ffffffffffffffffffffffffffffffffffffffff16815260200190815260200160002060030160009054906101000a900460ff1615151461057457600080fd5b60011515600660003373ffffffffffffffffffffffffffffffffffffffff1673ffffffffffffffffffffffffffffffffffffffff16815260200190815260200160002060030160019054906101000a900460ff161515146105d457600080fd5b60011515600360009054906101000a900460ff161515146105f457600080fd5b60001515600360019054906101000a900460ff1615151461061457600080fd5b6001600460006103e9846106289190611592565b81526020019081526020016000206006016000828254610648919061153c565b925050819055506001600660003373ffffffffffffffffffffffffffffffffffffffff1673ffffffffffffffffffffffffffffffffffffffff16815260200190815260200160002060030160006101000a81548160ff021916908315150217905550807fa247b679b8fc65eb95979774186f3f4068743d7c38c37ca4b1181dcb7ca2507d60405160405180910390a250565b60066020528060005260406000206000915090508060000160009054906101000a900473ffffffffffffffffffffffffffffffffffffffff1690806001018054610723906115f5565b80601f016020809104026020016040519081016040528092919081815260200182805461074f906115f5565b801561079c5780601f106107715761010080835404028352916020019161079c565b820191906000526020600020905b81548152906001019060200180831161077f57829003601f168201915b5050505050908060020180546107b1906115f5565b80601f01602080910402602001604051908101604052809291908181526020018280546107dd906115f5565b801561082a5780601f106107ff5761010080835404028352916020019161082a565b820191906000526020600020905b81548152906001019060200180831161080d57829003601f168201915b5050505050908060030160009054906101000a900460ff16908060030160019054906101000a900460ff16905085565b60008054906101000a900473ffffffffffffffffffffffffffffffffffffffff1673ffffffffffffffffffffffffffffffffffffffff163373ffffffffffffffffffffffffffffffffffffffff16146108b257600080fd5b6000600360006101000a81548160ff0219169083151502179055506001600360016101000a81548160ff021916908315150217905550565b600460205280600052604060002060009150905080600001805461090d906115f5565b80601f0160208091040260200160405190810160405280929190818152602001828054610939906115f5565b80156109865780601f1061095b57610100808354040283529160200191610986565b820191906000526020600020905b81548152906001019060200180831161096957829003601f168201915b50505050509080600101805461099b906115f5565b80601f01602080910402602001604051908101604052809291908181526020018280546109c7906115f5565b8015610a145780601f106109e957610100808354040283529160200191610a14565b820191906000526020600020905b8154815290600101906020018083116109f757829003601f168201915b505050505090806002018054610a29906115f5565b80601f0160208091040260200160405190810160405280929190818152602001828054610a55906115f5565b8015610aa25780601f10610a7757610100808354040283529160200191610aa2565b820191906000526020600020905b815481529060010190602001808311610a8557829003601f168201915b505050505090806003015490806004015490806005018054610ac3906115f5565b80601f0160208091040260200160405190810160405280929190818152602001828054610aef906115f5565b8015610b3c5780601f10610b1157610100808354040283529160200191610b3c565b820191906000526020600020905b815481529060010190602001808311610b1f57829003601f168201915b5050505050908060060154908060070154905088565b60008054906101000a900473ffffffffffffffffffffffffffffffffffffffff1673ffffffffffffffffffffffffffffffffffffffff163373ffffffffffffffffffffffffffffffffffffffff1614610baa57600080fd5b6001600360006101000a81548160ff0219169083151502179055506000600360016101000a81548160ff021916908315150217905550565b60008060009054906101000a900473ffffffffffffffffffffffffffffffffffffffff16905090565b60006040518060a001604052803373ffffffffffffffffffffffffffffffffffffffff16815260200184815260200183815260200160001515815260200160001515815250905080600660003373ffffffffffffffffffffffffffffffffffffffff1673ffffffffffffffffffffffffffffffffffffffff16815260200190815260200160002060008201518160000160006101000a81548173ffffffffffffffffffffffffffffffffffffffff021916908373ffffffffffffffffffffffffffffffffffffffff1602179055506020820151816001019080519060200190610cf5929190610ea0565b506040820151816002019080519060200190610d12929190610ea0565b5060608201518160030160006101000a81548160ff02191690831515021790555060808201518160030160016101000a81548160ff0219169083151502179055509050506005339080600181540180825580915050600190039060005260206000200160009091909190916101000a81548173ffffffffffffffffffffffffffffffffffffffff021916908373ffffffffffffffffffffffffffffffffffffffff160217905550600160026000828254610dcc919061153c565b925050819055507f4a3ac5e21761a8de2335dd88069584779faf490975d22f57c84bd906183438b482604051610e029190611626565b60405180910390a1505050565b60008054906101000a900473ffffffffffffffffffffffffffffffffffffffff1681565b6000600360019054906101000a900460ff16905090565b6000600360009054906101000a900460ff16905090565b60058181548110610e7157600080fd5b906000526020600020016000915054906101000a900473ffffffffffffffffffffffffffffffffffffffff1681565b828054610eac906115f5565b90600052602060002090601f016020900481019282610ece5760008555610f15565b82601f10610ee757805160ff1916838001178555610f15565b82800160010185558215610f15579182015b82811115610f14578251825591602001919060010190610ef9565b5b509050610f229190610f26565b5090565b5b80821115610f3f576000816000905550600101610f27565b5090565b6000604051905090565b600080fd5b600080fd5b600073ffffffffffffffffffffffffffffffffffffffff82169050919050565b6000610f8282610f57565b9050919050565b610f9281610f77565b8114610f9d57600080fd5b50565b600081359050610faf81610f89565b92915050565b600060208284031215610fcb57610fca610f4d565b5b6000610fd984828501610fa0565b91505092915050565b6000819050919050565b610ff581610fe2565b82525050565b60006020820190506110106000830184610fec565b92915050565b600080fd5b600080fd5b6000601f19601f8301169050919050565b7f4e487b7100000000000000000000000000000000000000000000000000000000600052604160045260246000fd5b61106982611020565b810181811067ffffffffffffffff8211171561108857611087611031565b5b80604052505050565b600061109b610f43565b90506110a78282611060565b919050565b600067ffffffffffffffff8211156110c7576110c6611031565b5b6110d082611020565b9050602081019050919050565b82818337600083830152505050565b60006110ff6110fa846110ac565b611091565b90508281526020810184848401111561111b5761111a61101b565b5b6111268482856110dd565b509392505050565b600082601f83011261114357611142611016565b5b81356111538482602086016110ec565b91505092915050565b61116581610fe2565b811461117057600080fd5b50565b6000813590506111828161115c565b92915050565b60008060008060008060c087890312156111a5576111a4610f4d565b5b600087013567ffffffffffffffff8111156111c3576111c2610f52565b5b6111cf89828a0161112e565b965050602087013567ffffffffffffffff8111156111f0576111ef610f52565b5b6111fc89828a0161112e565b955050604087013567ffffffffffffffff81111561121d5761121c610f52565b5b61122989828a0161112e565b945050606061123a89828a01611173565b935050608061124b89828a01611173565b92505060a087013567ffffffffffffffff81111561126c5761126b610f52565b5b61127889828a0161112e565b9150509295509295509295565b60006020828403121561129b5761129a610f4d565b5b60006112a984828501611173565b91505092915050565b6112bb81610f77565b82525050565b600081519050919050565b600082825260208201905092915050565b60005b838110156112fb5780820151818401526020810190506112e0565b8381111561130a576000848401525b50505050565b600061131b826112c1565b61132581856112cc565b93506113358185602086016112dd565b61133e81611020565b840191505092915050565b60008115159050919050565b61135e81611349565b82525050565b600060a08201905061137960008301886112b2565b818103602083015261138b8187611310565b9050818103604083015261139f8186611310565b90506113ae6060830185611355565b6113bb6080830184611355565b9695505050505050565b60006101008201905081810360008301526113e0818b611310565b905081810360208301526113f4818a611310565b905081810360408301526114088189611310565b90506114176060830188610fec565b6114246080830187610fec565b81810360a08301526114368186611310565b905061144560c0830185610fec565b61145260e0830184610fec565b9998505050505050505050565b600060208201905061147460008301846112b2565b92915050565b6000806040838503121561149157611490610f4d565b5b600083013567ffffffffffffffff8111156114af576114ae610f52565b5b6114bb8582860161112e565b925050602083013567ffffffffffffffff8111156114dc576114db610f52565b5b6114e88582860161112e565b9150509250929050565b60006020820190506115076000830184611355565b92915050565b7f4e487b7100000000000000000000000000000000000000000000000000000000600052601160045260246000fd5b600061154782610fe2565b915061155283610fe2565b9250827fffffffffffffffffffffffffffffffffffffffffffffffffffffffffffffffff038211156115875761158661150d565b5b828201905092915050565b600061159d82610fe2565b91506115a883610fe2565b9250828210156115bb576115ba61150d565b5b828203905092915050565b7f4e487b7100000000000000000000000000000000000000000000000000000000600052602260045260246000fd5b6000600282049050600182168061160d57607f821691505b6020821081036116205761161f6115c6565b5b50919050565b600060208201905081810360008301526116408184611310565b90509291505056fea2646970667358221220026256c96e7a2b48227f49f2455b6c2f3a097a580b41bdc6d35a1d3df5b1325f64736f6c634300080d0033",
  "immutableReferences": {},
  "source": "// SPDX-License-Identifier: GPL-3.0\r\npragma solidity >=0.4.16 <0.9.0;\r\n\r\ncontract ElectionContract {\r\n    address public owner;\r\n    uint candidateCount;\r\n    uint voterCount;\r\n    bool start;\r\n    bool end;\r\n\r\n    constructor() {\r\n        owner = msg.sender;\r\n        candidateCount = 0;\r\n        voterCount = 0;\r\n        start = false;\r\n        end = false;\r\n    }\r\n\r\n    function getOwner() public view returns(address){\r\n        return owner;\r\n    }\r\n\r\n    modifier onlyAdmin(){\r\n        require((msg.sender == owner));\r\n        _;\r\n    }\r\n\r\n    struct Candidate{\r\n        string name;\r\n        string party;\r\n        string gender;\r\n        uint age;\r\n        uint uniqueId;\r\n        string imghash;\r\n        uint voteCount;\r\n        uint candidateId;\r\n    }\r\n\r\n    mapping(uint => Candidate) public candidateDetails;\r\n\r\n    function addCandidate(string memory _name, string memory _party, string memory _gender, \r\n    uint _age, uint _uniqueId, string memory _imghash) public onlyAdmin{\r\n        Candidate memory newCandidate = Candidate({\r\n            name: _name,\r\n            party: _party,\r\n            gender: _gender,\r\n            age: _age,\r\n            uniqueId: _uniqueId,\r\n            imghash: _imghash,\r\n            voteCount: 0,\r\n            candidateId: candidateCount + 1001\r\n        });\r\n        candidateDetails[candidateCount] = newCandidate;\r\n        candidateCount += 1;\r\n    }\r\n\r\n    function getTotalCandidates() public view returns(uint){\r\n        return candidateCount;\r\n    }\r\n\r\n    struct Voter{\r\n        address voterAdd;\r\n        string name;\r\n        string voterId;\r\n        bool hasVoted;\r\n        bool isVerified;\r\n    }\r\n\r\n    address[] public voters;\r\n    mapping(address => Voter) public voterDetails;\r\n\r\n    event voterRegister(\r\n        string _voterId\r\n    );\r\n\r\n    event voteEvent(\r\n        uint indexed _candidateId\r\n    );\r\n\r\n    function registerVoter(string memory _name, string memory _voterId) public {\r\n        Voter memory newVoter = Voter({\r\n            voterAdd: msg.sender,\r\n            name: _name,\r\n            voterId: _voterId,\r\n            hasVoted: false,\r\n            isVerified: false\r\n        });\r\n        voterDetails[msg.sender] = newVoter;\r\n        voters.push(msg.sender);\r\n        voterCount += 1;\r\n        emit voterRegister(_voterId);\r\n    }\r\n\r\n    function getVoterCount() public view returns (uint){\r\n        return voterCount;\r\n    }\r\n\r\n    function verifyVoter(address _address) public onlyAdmin {\r\n        voterDetails[_address].isVerified = true;\r\n    }\r\n\r\n    function castVote(uint candidateId) public{\r\n        require(voterDetails[msg.sender].hasVoted == false);\r\n        require(voterDetails[msg.sender].isVerified == true);\r\n        require(start == true);\r\n        require(end == false);\r\n        candidateDetails[candidateId - 1001].voteCount += 1;\r\n        voterDetails[msg.sender].hasVoted = true;\r\n        emit voteEvent(candidateId);\r\n    }\r\n\r\n    function startElection() public onlyAdmin {\r\n        start = true;\r\n        end = false;\r\n    }\r\n\r\n    function endElection() public onlyAdmin {\r\n        start = false;\r\n        end = true;\r\n    }\r\n\r\n    function getStart() public view returns (bool) {\r\n        return start;\r\n    }\r\n\r\n    function getEnd() public view returns (bool) {\r\n        return end;\r\n    }\r\n    \r\n}",
  "sourcePath": "C:\\Users\\Admin\\Desktop\\dek\\vishal\\Sem 6\\Miniproject\\final\\VDapp_MiniProject\\contracts\\ElectionContract.sol",
  "compiler": {
    "name": "solc",
    "version": "0.8.13+commit.abaa5c0e.Emscripten.clang"
  },
  "schemaVersion": "3.4.6",
  "updatedAt": "2022-05-22T14:51:57.645Z",
  "networkType": "ethereum",
  "devdoc": {
    "kind": "dev",
    "methods": {},
    "version": 1
  },
  "userdoc": {
    "kind": "user",
    "methods": {},
    "version": 1
  }
}